{
  "contractName": "Staking",
  "abi": [
    {
      "inputs": [
        {
          "internalType": "uint256",
          "name": "_rewardRate",
          "type": "uint256"
        },
        {
          "internalType": "address",
          "name": "_stakingToken",
          "type": "address"
        },
        {
          "internalType": "address",
          "name": "_rewardsToken",
          "type": "address"
        }
      ],
      "stateMutability": "nonpayable",
      "type": "constructor"
    },
    {
      "inputs": [],
      "name": "NeedsMoreThanZero",
      "type": "error"
    },
    {
      "inputs": [],
      "name": "TransferFailed",
      "type": "error"
    },
    {
      "anonymous": false,
      "inputs": [
        {
          "indexed": true,
          "internalType": "address",
          "name": "user",
          "type": "address"
        },
        {
          "indexed": true,
          "internalType": "uint256",
          "name": "amount",
          "type": "uint256"
        }
      ],
      "name": "RewardsClaimed",
      "type": "event"
    },
    {
      "anonymous": false,
      "inputs": [
        {
          "indexed": true,
          "internalType": "address",
          "name": "user",
          "type": "address"
        },
        {
          "indexed": true,
          "internalType": "uint256",
          "name": "amount",
          "type": "uint256"
        }
      ],
      "name": "Staked",
      "type": "event"
    },
    {
      "anonymous": false,
      "inputs": [
        {
          "indexed": true,
          "internalType": "address",
          "name": "user",
          "type": "address"
        },
        {
          "indexed": true,
          "internalType": "uint256",
          "name": "amount",
          "type": "uint256"
        }
      ],
      "name": "WithdrewStake",
      "type": "event"
    },
    {
      "inputs": [],
      "name": "rewardsToken",
      "outputs": [
        {
          "internalType": "contract IERC20",
          "name": "",
          "type": "address"
        }
      ],
      "stateMutability": "view",
      "type": "function",
      "constant": true
    },
    {
      "inputs": [],
      "name": "stakingToken",
      "outputs": [
        {
          "internalType": "contract IERC20",
          "name": "",
          "type": "address"
        }
      ],
      "stateMutability": "view",
      "type": "function",
      "constant": true
    },
    {
      "inputs": [],
      "name": "totalStakers",
      "outputs": [
        {
          "internalType": "uint256",
          "name": "",
          "type": "uint256"
        }
      ],
      "stateMutability": "view",
      "type": "function",
      "constant": true
    },
    {
      "inputs": [],
      "name": "totalSupplied",
      "outputs": [
        {
          "internalType": "uint256",
          "name": "",
          "type": "uint256"
        }
      ],
      "stateMutability": "view",
      "type": "function",
      "constant": true
    },
    {
      "inputs": [],
      "name": "earned",
      "outputs": [
        {
          "internalType": "uint256",
          "name": "",
          "type": "uint256"
        }
      ],
      "stateMutability": "view",
      "type": "function",
      "constant": true
    },
    {
      "inputs": [
        {
          "internalType": "uint256",
          "name": "amount",
          "type": "uint256"
        }
      ],
      "name": "stake",
      "outputs": [],
      "stateMutability": "nonpayable",
      "type": "function"
    },
    {
      "inputs": [
        {
          "internalType": "uint256",
          "name": "amount",
          "type": "uint256"
        }
      ],
      "name": "withdraw",
      "outputs": [],
      "stateMutability": "nonpayable",
      "type": "function"
    },
    {
      "inputs": [],
      "name": "claimReward",
      "outputs": [],
      "stateMutability": "nonpayable",
      "type": "function"
    },
    {
      "inputs": [],
      "name": "getStaked",
      "outputs": [
        {
          "internalType": "uint256",
          "name": "",
          "type": "uint256"
        }
      ],
      "stateMutability": "view",
      "type": "function",
      "constant": true
    },
    {
      "inputs": [],
      "name": "getStakedValue",
      "outputs": [
        {
          "internalType": "uint256",
          "name": "",
          "type": "uint256"
        }
      ],
      "stateMutability": "view",
      "type": "function",
      "constant": true
    }
  ],
  "bytecode": "0x60806040523480156200001157600080fd5b5060405162001619380380620016198339818101604052810190620000379190620001e0565b6001600081905550670de0b6b3a7640000836200005591906200026b565b60038190555081600260006101000a81548173ffffffffffffffffffffffffffffffffffffffff021916908373ffffffffffffffffffffffffffffffffffffffff16021790555080600160006101000a81548173ffffffffffffffffffffffffffffffffffffffff021916908373ffffffffffffffffffffffffffffffffffffffff16021790555073d8bd0a1cb028a31aa859a21a3758685a95de4623600a60006101000a81548173ffffffffffffffffffffffffffffffffffffffff021916908373ffffffffffffffffffffffffffffffffffffffff160217905550505050620002cc565b600080fd5b6000819050919050565b620001558162000140565b81146200016157600080fd5b50565b60008151905062000175816200014a565b92915050565b600073ffffffffffffffffffffffffffffffffffffffff82169050919050565b6000620001a8826200017b565b9050919050565b620001ba816200019b565b8114620001c657600080fd5b50565b600081519050620001da81620001af565b92915050565b600080600060608486031215620001fc57620001fb6200013b565b5b60006200020c8682870162000164565b93505060206200021f86828701620001c9565b92505060406200023286828701620001c9565b9150509250925092565b7f4e487b7100000000000000000000000000000000000000000000000000000000600052601160045260246000fd5b6000620002788262000140565b9150620002858362000140565b9250817fffffffffffffffffffffffffffffffffffffffffffffffffffffffffffffffff0483118215151615620002c157620002c06200023c565b5b828202905092915050565b61133d80620002dc6000396000f3fe608060405234801561001057600080fd5b506004361061009e5760003560e01c8063a7ef708211610066578063a7ef708214610135578063b88a802f14610153578063c59abf9f1461015d578063d1af0c7d1461017b578063d6f19262146101995761009e565b80632e1a7d4d146100a3578063630fd0ac146100bf57806372f702f3146100dd57806386989038146100fb578063a694fc3a14610119575b600080fd5b6100bd60048036038101906100b89190610dc7565b6101b7565b005b6100c76104a7565b6040516100d49190610e03565b60405180910390f35b6100e56104ad565b6040516100f29190610e9d565b60405180910390f35b6101036104d3565b6040516101109190610e03565b60405180910390f35b610133600480360381019061012e9190610dc7565b6104d9565b005b61013d610807565b60405161014a9190610e03565b60405180910390f35b61015b610900565b005b610165610baa565b6040516101729190610e03565b60405180910390f35b610183610bf1565b6040516101909190610e9d565b60405180910390f35b6101a1610c17565b6040516101ae9190610e03565b60405180910390f35b336101c0610c27565b600581905550426004819055506101d681610c8a565b600760008373ffffffffffffffffffffffffffffffffffffffff1673ffffffffffffffffffffffffffffffffffffffff16815260200190815260200160002081905550600554600660008373ffffffffffffffffffffffffffffffffffffffff1673ffffffffffffffffffffffffffffffffffffffff168152602001908152602001600020819055506002600054036102a4576040517f08c379a000000000000000000000000000000000000000000000000000000000815260040161029b90610f15565b60405180910390fd5b600260008190555081600860008282546102be9190610f64565b9250508190555081600b60003373ffffffffffffffffffffffffffffffffffffffff1673ffffffffffffffffffffffffffffffffffffffff16815260200190815260200160002060008282546103149190610f64565b925050819055506000600b60003373ffffffffffffffffffffffffffffffffffffffff1673ffffffffffffffffffffffffffffffffffffffff168152602001908152602001600020540361037b576009600081548092919061037590610f98565b91905055505b813373ffffffffffffffffffffffffffffffffffffffff167f4cb6da433ea55f6e302b7bdbfeed740816a42301cde7f5bac5dff2b34037637460405160405180910390a36000600260009054906101000a900473ffffffffffffffffffffffffffffffffffffffff1673ffffffffffffffffffffffffffffffffffffffff1663a9059cbb33856040518363ffffffff1660e01b815260040161041e929190610fe2565b6020604051808303816000875af115801561043d573d6000803e3d6000fd5b505050506040513d601f19601f820116820180604052508101906104619190611043565b90508061049a576040517f90b8ec1800000000000000000000000000000000000000000000000000000000815260040160405180910390fd5b5060016000819055505050565b60085481565b600260009054906101000a900473ffffffffffffffffffffffffffffffffffffffff1681565b60095481565b336104e2610c27565b600581905550426004819055506104f881610c8a565b600760008373ffffffffffffffffffffffffffffffffffffffff1673ffffffffffffffffffffffffffffffffffffffff16815260200190815260200160002081905550600554600660008373ffffffffffffffffffffffffffffffffffffffff1673ffffffffffffffffffffffffffffffffffffffff168152602001908152602001600020819055506002600054036105c6576040517f08c379a00000000000000000000000000000000000000000000000000000000081526004016105bd90610f15565b60405180910390fd5b60026000819055508160008103610609576040517ff45911f000000000000000000000000000000000000000000000000000000000815260040160405180910390fd5b6000600b60003373ffffffffffffffffffffffffffffffffffffffff1673ffffffffffffffffffffffffffffffffffffffff1681526020019081526020016000205403610669576009600081548092919061066390611070565b91905055505b826008600082825461067b91906110b8565b9250508190555082600b60003373ffffffffffffffffffffffffffffffffffffffff1673ffffffffffffffffffffffffffffffffffffffff16815260200190815260200160002060008282546106d191906110b8565b92505081905550823373ffffffffffffffffffffffffffffffffffffffff167f9e71bc8eea02a63969f509818f2dafb9254532904319f9dbda79b67bd34a5f3d60405160405180910390a36000600260009054906101000a900473ffffffffffffffffffffffffffffffffffffffff1673ffffffffffffffffffffffffffffffffffffffff166323b872dd3330876040518463ffffffff1660e01b815260040161077d9392919061110e565b6020604051808303816000875af115801561079c573d6000803e3d6000fd5b505050506040513d601f19601f820116820180604052508101906107c09190611043565b9050806107f9576040517f90b8ec1800000000000000000000000000000000000000000000000000000000815260040160405180910390fd5b505060016000819055505050565b600080600a60009054906101000a900473ffffffffffffffffffffffffffffffffffffffff1673ffffffffffffffffffffffffffffffffffffffff1663feaf968c6040518163ffffffff1660e01b815260040160a060405180830381865afa158015610877573d6000803e3d6000fd5b505050506040513d601f19601f8201168201806040525081019061089b91906111d2565b505050915050620f424081600b60003373ffffffffffffffffffffffffffffffffffffffff1673ffffffffffffffffffffffffffffffffffffffff168152602001908152602001600020546108f0919061124d565b6108fa91906112d6565b91505090565b33610909610c27565b6005819055504260048190555061091f81610c8a565b600760008373ffffffffffffffffffffffffffffffffffffffff1673ffffffffffffffffffffffffffffffffffffffff16815260200190815260200160002081905550600554600660008373ffffffffffffffffffffffffffffffffffffffff1673ffffffffffffffffffffffffffffffffffffffff168152602001908152602001600020819055506002600054036109ed576040517f08c379a00000000000000000000000000000000000000000000000000000000081526004016109e490610f15565b60405180910390fd5b60026000819055506000600760003373ffffffffffffffffffffffffffffffffffffffff1673ffffffffffffffffffffffffffffffffffffffff1681526020019081526020016000205490506000600760003373ffffffffffffffffffffffffffffffffffffffff1673ffffffffffffffffffffffffffffffffffffffff16815260200190815260200160002081905550803373ffffffffffffffffffffffffffffffffffffffff167ffc30cddea38e2bf4d6ea7d3f9ed3b6ad7f176419f4963bd81318067a4aee73fe60405160405180910390a36000600160009054906101000a900473ffffffffffffffffffffffffffffffffffffffff1673ffffffffffffffffffffffffffffffffffffffff1663a9059cbb33846040518363ffffffff1660e01b8152600401610b21929190610fe2565b6020604051808303816000875af1158015610b40573d6000803e3d6000fd5b505050506040513d601f19601f82011682018060405250810190610b649190611043565b905080610b9d576040517f90b8ec1800000000000000000000000000000000000000000000000000000000815260040160405180910390fd5b5050600160008190555050565b6000600b60003373ffffffffffffffffffffffffffffffffffffffff1673ffffffffffffffffffffffffffffffffffffffff16815260200190815260200160002054905090565b600160009054906101000a900473ffffffffffffffffffffffffffffffffffffffff1681565b6000610c2233610c8a565b905090565b60008060085403610c3c576005549050610c87565b600854670de0b6b3a764000060035460045442610c599190610f64565b610c63919061124d565b610c6d919061124d565b610c7791906112d6565b600554610c8491906110b8565b90505b90565b6000600760008373ffffffffffffffffffffffffffffffffffffffff1673ffffffffffffffffffffffffffffffffffffffff16815260200190815260200160002054670de0b6b3a7640000600660008573ffffffffffffffffffffffffffffffffffffffff1673ffffffffffffffffffffffffffffffffffffffff16815260200190815260200160002054610d1d610c27565b610d279190610f64565b600b60008673ffffffffffffffffffffffffffffffffffffffff1673ffffffffffffffffffffffffffffffffffffffff16815260200190815260200160002054610d71919061124d565b610d7b91906112d6565b610d8591906110b8565b9050919050565b600080fd5b6000819050919050565b610da481610d91565b8114610daf57600080fd5b50565b600081359050610dc181610d9b565b92915050565b600060208284031215610ddd57610ddc610d8c565b5b6000610deb84828501610db2565b91505092915050565b610dfd81610d91565b82525050565b6000602082019050610e186000830184610df4565b92915050565b600073ffffffffffffffffffffffffffffffffffffffff82169050919050565b6000819050919050565b6000610e63610e5e610e5984610e1e565b610e3e565b610e1e565b9050919050565b6000610e7582610e48565b9050919050565b6000610e8782610e6a565b9050919050565b610e9781610e7c565b82525050565b6000602082019050610eb26000830184610e8e565b92915050565b600082825260208201905092915050565b7f5265656e7472616e637947756172643a207265656e7472616e742063616c6c00600082015250565b6000610eff601f83610eb8565b9150610f0a82610ec9565b602082019050919050565b60006020820190508181036000830152610f2e81610ef2565b9050919050565b7f4e487b7100000000000000000000000000000000000000000000000000000000600052601160045260246000fd5b6000610f6f82610d91565b9150610f7a83610d91565b925082821015610f8d57610f8c610f35565b5b828203905092915050565b6000610fa382610d91565b915060008203610fb657610fb5610f35565b5b600182039050919050565b6000610fcc82610e1e565b9050919050565b610fdc81610fc1565b82525050565b6000604082019050610ff76000830185610fd3565b6110046020830184610df4565b9392505050565b60008115159050919050565b6110208161100b565b811461102b57600080fd5b50565b60008151905061103d81611017565b92915050565b60006020828403121561105957611058610d8c565b5b60006110678482850161102e565b91505092915050565b600061107b82610d91565b91507fffffffffffffffffffffffffffffffffffffffffffffffffffffffffffffffff82036110ad576110ac610f35565b5b600182019050919050565b60006110c382610d91565b91506110ce83610d91565b9250827fffffffffffffffffffffffffffffffffffffffffffffffffffffffffffffffff0382111561110357611102610f35565b5b828201905092915050565b60006060820190506111236000830186610fd3565b6111306020830185610fd3565b61113d6040830184610df4565b949350505050565b600069ffffffffffffffffffff82169050919050565b61116481611145565b811461116f57600080fd5b50565b6000815190506111818161115b565b92915050565b6000819050919050565b61119a81611187565b81146111a557600080fd5b50565b6000815190506111b781611191565b92915050565b6000815190506111cc81610d9b565b92915050565b600080600080600060a086880312156111ee576111ed610d8c565b5b60006111fc88828901611172565b955050602061120d888289016111a8565b945050604061121e888289016111bd565b935050606061122f888289016111bd565b925050608061124088828901611172565b9150509295509295909350565b600061125882610d91565b915061126383610d91565b9250817fffffffffffffffffffffffffffffffffffffffffffffffffffffffffffffffff048311821515161561129c5761129b610f35565b5b828202905092915050565b7f4e487b7100000000000000000000000000000000000000000000000000000000600052601260045260246000fd5b60006112e182610d91565b91506112ec83610d91565b9250826112fc576112fb6112a7565b5b82820490509291505056fea2646970667358221220e01515b4e29d0844a001648a75b11d5c6ba5569d9164b572f13be18da1afe75664736f6c634300080f0033",
  "immutableReferences": {},
  "source": "// SPDX-License-Identifier: MIT\n// Inspired by https://solidity-by-example.org/defi/staking-rewards/\npragma solidity ^0.8.15;\n\nimport \"@openzeppelin/contracts/security/ReentrancyGuard.sol\";\nimport \"@openzeppelin/contracts/token/ERC20/IERC20.sol\";\nimport \"@chainlink/contracts/src/v0.8/interfaces/AggregatorV3Interface.sol\";\n\nerror TransferFailed();\nerror NeedsMoreThanZero();\n\ncontract Staking is ReentrancyGuard {\n    /** \n     * @notice Token de recompense du protocole.\n     */\n    IERC20 public rewardsToken;\n\n    /**\n     * @notice ERC20 a staker pour obtenir des recompenses\n     */\n    IERC20 public stakingToken;\n\n    /** \n     * @notice Nombre de token de recompense crees par seconde\n       @dev recompenses seulement lorsque total != 0\n     */\n    uint256 private REWARD_RATE;\n\n    /** \n     * @notice timestamp de derniere maj des rewards par token\n     */\n    uint256 private lastUpdateTime;\n    /**\n     * @notice reward par token staked. Valeur uniquement croissante dans le temps. \n     */\n    uint256 private rewardPerTokenStored;\n\n    /**\n     * @notice dette de recompenses de l'utilisateur. \n     *  egale a la valeur des rewards par token au moment ou l'utilisateur modifie son nombre de token staked.\n     */\n    mapping(address => uint256) private userDebtPerToken;\n    /**\n     * @notice recompenses de l'utilisateur memorisees avant modification des caracteristiques de son stake\n     */\n    mapping(address => uint256) private rewards;\n\n    /**\n     * @notice nombre total de token staked\n     */\n    uint256 public totalSupplied;\n\n    /**\n     * @notice nombre total de stakers\n     */\n    uint256 public totalStakers;\n\n    /** \n     * chainlink pricefeed used for stake token $ valuation\n     */\n    AggregatorV3Interface private priceFeed;\n\n    /**\n     * @notice adresse => balance actuelle de staking\n     */\n    mapping(address => uint256) private stakingBalances;\n\n    event Staked(address indexed user, uint256 indexed amount);\n    event WithdrewStake(address indexed user, uint256 indexed amount);\n    event RewardsClaimed(address indexed user, uint256 indexed amount);\n\n    /** \n     * @param _rewardRate nombre de tokens par seconde de recompense \n     * @param _stakingToken addresse de l'ERC20 a staker\n     * @param _rewardsToken adresse de l'ERC20 de recompense\n     */\n    constructor( uint _rewardRate, address _stakingToken, address _rewardsToken ) {\n        REWARD_RATE = _rewardRate*1e18;\n        stakingToken = IERC20(_stakingToken);\n        rewardsToken = IERC20(_rewardsToken);\n        priceFeed = AggregatorV3Interface(0xd8bD0a1cB028a31AA859A21A3758685a95dE4623);\n    }\n\n    /**\n     * @notice Valeur actuelle du reward pour un token staked\n     */\n    function rewardPerToken() private view returns (uint256) {\n        if (totalSupplied == 0) {\n            return rewardPerTokenStored;\n        }\n        return\n            rewardPerTokenStored +\n            (((block.timestamp - lastUpdateTime) * REWARD_RATE * 1e18) / totalSupplied);\n    }\n\n    /**\n     * @notice Rewards a jour pour un user\n     */\n    function earned(address _account) private view returns (uint256) {\n        return\n            ((stakingBalances[_account] * (rewardPerToken() - userDebtPerToken[_account])) / 1e18) + rewards[_account];\n    }\n\n    /**\n     * @notice Rewards a jour pour un user\n     */\n    function earned() public view returns (uint256) {\n        return earned(msg.sender);\n    }\n\n    /**\n     * @notice Deposer les tokens sur le contrat\n     * @param amount | nombre de tokens a stake\n     */\n    function stake(uint256 amount)\n        external\n        updateReward(msg.sender)\n        nonReentrant\n        moreThanZero(amount)\n    {\n        if (stakingBalances[msg.sender]==0)\n            totalStakers++;\n        totalSupplied += amount;\n        stakingBalances[msg.sender] += amount;\n        emit Staked(msg.sender, amount);\n        bool success = stakingToken.transferFrom(msg.sender, address(this), amount);\n        if (!success) {\n            revert TransferFailed();\n        }\n    }\n\n    /**\n     * @notice Retirer les tokens stakes\n     * @param amount | nombre de tokens a retirer\n     */\n    function withdraw(uint256 amount) external updateReward(msg.sender) nonReentrant {\n        totalSupplied -= amount;\n        stakingBalances[msg.sender] -= amount;\n        if (stakingBalances[msg.sender]==0)\n            totalStakers--;\n        emit WithdrewStake(msg.sender, amount);\n        bool success = stakingToken.transfer(msg.sender, amount);\n        if (!success) {\n            revert TransferFailed();\n        }\n    }\n\n    /**\n     * @notice Recuperer l'ensemble des recompenses de staking\n     */\n    function claimReward() external updateReward(msg.sender) nonReentrant {\n        uint256 reward = rewards[msg.sender];\n        rewards[msg.sender] = 0;\n        emit RewardsClaimed(msg.sender, reward);\n        bool success = rewardsToken.transfer(msg.sender, reward);\n        if (!success) {\n            revert TransferFailed();\n        }\n    }\n\n    /**************/\n    /* Modifiers  */\n    /**************/\n    modifier updateReward(address account) {\n        rewardPerTokenStored = rewardPerToken();\n        lastUpdateTime = block.timestamp;\n        rewards[account] = earned(account);\n        userDebtPerToken[account] = rewardPerTokenStored;\n        _;\n    }\n\n    modifier moreThanZero(uint256 amount) {\n        if (amount == 0) {\n            revert NeedsMoreThanZero();\n        }\n        _;\n    }\n\n    /**\n     * @notice montant staked pour un user\n     */\n    function getStaked() external view returns (uint256) {\n        return stakingBalances[msg.sender];\n    }\n\n    function getStakedValue() external view returns (uint256) {\n         (\n            /*uint80 roundID*/,\n            int price,\n            /*uint startedAt*/,\n            /*uint timeStamp*/,\n            /*uint80 answeredInRound*/\n        ) = priceFeed.latestRoundData();\n        return stakingBalances[msg.sender]*uint(price) / 1e6 ;\n    }\n}\n",
  "sourcePath": "/home/mike/alyra_defi/truffle/contracts/Staking.sol",
  "compiler": {
    "name": "solc",
    "version": "0.8.15+commit.e14f2714.Emscripten.clang"
  },
  "schemaVersion": "3.4.7",
  "updatedAt": "2022-08-07T19:14:06.656Z",
  "networkType": "ethereum",
  "devdoc": {
    "kind": "dev",
    "methods": {
      "constructor": {
        "params": {
          "_rewardRate": "nombre de tokens par seconde de recompense ",
          "_rewardsToken": "adresse de l'ERC20 de recompense",
          "_stakingToken": "addresse de l'ERC20 a staker"
        }
      },
      "stake(uint256)": {
        "params": {
          "amount": "| nombre de tokens a stake"
        }
      },
      "withdraw(uint256)": {
        "params": {
          "amount": "| nombre de tokens a retirer"
        }
      }
    },
    "stateVariables": {
      "REWARD_RATE": {
        "details": "recompenses seulement lorsque total != 0"
      }
    },
    "version": 1
  },
  "userdoc": {
    "kind": "user",
    "methods": {
      "claimReward()": {
        "notice": "Recuperer l'ensemble des recompenses de staking"
      },
      "earned()": {
        "notice": "Rewards a jour pour un user"
      },
      "getStaked()": {
        "notice": "montant staked pour un user"
      },
      "rewardsToken()": {
        "notice": "Token de recompense du protocole."
      },
      "stake(uint256)": {
        "notice": "Deposer les tokens sur le contrat"
      },
      "stakingToken()": {
        "notice": "ERC20 a staker pour obtenir des recompenses"
      },
      "totalStakers()": {
        "notice": "nombre total de stakers"
      },
      "totalSupplied()": {
        "notice": "nombre total de token staked"
      },
      "withdraw(uint256)": {
        "notice": "Retirer les tokens stakes"
      }
    },
    "version": 1
  }
}